{
    "contractName": "ZombieFactory",
    "abi": [
        {
            "inputs": [
                {
                    "internalType": "string",
                    "name": "_name",
                    "type": "string"
                },
                {
                    "internalType": "uint256",
                    "name": "_dna",
                    "type": "uint256"
                }
            ],
            "name": "createZombie",
            "outputs": [],
            "stateMutability": "nonpayable",
            "type": "function"
        },
        {
            "inputs": [
                {
                    "internalType": "uint256",
                    "name": "",
                    "type": "uint256"
                }
            ],
            "name": "zombies",
            "outputs": [
                {
                    "internalType": "string",
                    "name": "name",
                    "type": "string"
                },
                {
                    "internalType": "uint256",
                    "name": "dna",
                    "type": "uint256"
                }
            ],
            "stateMutability": "view",
            "type": "function"
        }
    ],
    "bytecode": "60806040526010600055662386f26fc1000060015534801561002057600080fd5b5061037c806100306000396000f3fe608060405234801561001057600080fd5b50600436106100365760003560e01c8063096393731461003b5780632052465e146100e5575b600080fd5b6100e36004803603604081101561005157600080fd5b81019060208101813564010000000081111561006c57600080fd5b82018360208201111561007e57600080fd5b803590602001918460018302840111640100000000831117156100a057600080fd5b91908080601f0160208091040260200160405190810160405280939291908181526020018383808284376000920191909152509295505091359250610181915050565b005b610102600480360360208110156100fb57600080fd5b50356101ef565b6040518080602001838152602001828103825284818151815260200191508051906020019080838360005b8381101561014557818101518382015260200161012d565b50505050905090810190601f1680156101725780820380516001836020036101000a031916815260200191505b50935050505060405180910390f35b60408051808201909152828152602080820183905260028054600181018255600082905283518051919092027f405787fa12a823e0f2b7631cc41b3ba8828b3321ca811111fa75cd3aa3bb5ace01926101de9284929101906102a5565b506020820151816001015550505050565b600281815481106101ff57600080fd5b60009182526020918290206002918202018054604080516001831615610100026000190190921693909304601f8101859004850282018501909352828152909350918391908301828280156102955780601f1061026a57610100808354040283529160200191610295565b820191906000526020600020905b81548152906001019060200180831161027857829003601f168201915b5050505050908060010154905082565b828054600181600116156101000203166002900490600052602060002090601f0160209004810192826102db5760008555610321565b82601f106102f457805160ff1916838001178555610321565b82800160010185558215610321579182015b82811115610321578251825591602001919060010190610306565b5061032d929150610331565b5090565b5b8082111561032d576000815560010161033256fea26469706673582212204fd3d624a51b6a42d20a3b5323b610cb0d2dece9b927b37fd5ffba1dbfb4a39064736f6c63430007040033",
    "sourcePath": "/media/daddy/Files/Project/knowledge/programming-languages/solidity/test.sol",
    "compiler": {
        "name": "solc",
        "version": "0.7.4+commit.3f05b770"
    },
    "functionHashes": {
        "createZombie(string,uint256)": "09639373",
        "zombies(uint256)": "2052465e"
    },
    "gasEstimates": {
        "creation": {
            "codeDepositCost": "178400",
            "executionCost": "40232",
            "totalCost": "218632"
        },
        "external": {
            "createZombie(string,uint256)": "infinite",
            "zombies(uint256)": "infinite"
        }
    }
}